{
  "contractName": "PaymentValidator",
  "abi": [
    {
      "constant": true,
      "inputs": [],
      "name": "owner",
      "outputs": [
        {
          "name": "",
          "type": "address"
        }
      ],
      "payable": false,
      "stateMutability": "view",
      "type": "function"
    },
    {
      "constant": true,
      "inputs": [],
      "name": "quoteSigner",
      "outputs": [
        {
          "name": "",
          "type": "address"
        }
      ],
      "payable": false,
      "stateMutability": "view",
      "type": "function"
    },
    {
      "inputs": [
        {
          "name": "valueSigner",
          "type": "address"
        }
      ],
      "payable": false,
      "stateMutability": "nonpayable",
      "type": "constructor"
    },
    {
      "anonymous": false,
      "inputs": [
        {
          "indexed": true,
          "name": "hash",
          "type": "bytes32"
        },
        {
          "indexed": false,
          "name": "time",
          "type": "uint256"
        },
        {
          "indexed": false,
          "name": "value",
          "type": "uint256"
        }
      ],
      "name": "PaymentAccepted",
      "type": "event"
    },
    {
      "constant": true,
      "inputs": [
        {
          "name": "value",
          "type": "uint256"
        },
        {
          "name": "expiration",
          "type": "uint256"
        },
        {
          "name": "payload",
          "type": "bytes32"
        },
        {
          "name": "hash",
          "type": "bytes32"
        },
        {
          "name": "v",
          "type": "uint8"
        },
        {
          "name": "r",
          "type": "bytes32"
        },
        {
          "name": "s",
          "type": "bytes32"
        }
      ],
      "name": "isValidPayment",
      "outputs": [
        {
          "name": "valid",
          "type": "bool"
        }
      ],
      "payable": false,
      "stateMutability": "view",
      "type": "function"
    },
    {
      "constant": false,
      "inputs": [
        {
          "name": "expiration",
          "type": "uint256"
        },
        {
          "name": "payload",
          "type": "bytes32"
        },
        {
          "name": "hash",
          "type": "bytes32"
        },
        {
          "name": "v",
          "type": "uint8"
        },
        {
          "name": "r",
          "type": "bytes32"
        },
        {
          "name": "s",
          "type": "bytes32"
        }
      ],
      "name": "pay",
      "outputs": [],
      "payable": true,
      "stateMutability": "payable",
      "type": "function"
    },
    {
      "constant": false,
      "inputs": [],
      "name": "withdraw",
      "outputs": [],
      "payable": false,
      "stateMutability": "nonpayable",
      "type": "function"
    },
    {
      "constant": false,
      "inputs": [
        {
          "name": "newQuoteSigner",
          "type": "address"
        }
      ],
      "name": "setSigner",
      "outputs": [],
      "payable": false,
      "stateMutability": "nonpayable",
      "type": "function"
    },
    {
      "constant": false,
      "inputs": [
        {
          "name": "newAdmin",
          "type": "address"
        }
      ],
      "name": "setAdmin",
      "outputs": [],
      "payable": false,
      "stateMutability": "nonpayable",
      "type": "function"
    }
  ],
  "bytecode": "0x608060405234801561001057600080fd5b50604051602080610c3483398101806040528101908080519060200190929190505050336000806101000a81548173ffffffffffffffffffffffffffffffffffffffff021916908373ffffffffffffffffffffffffffffffffffffffff16021790555080600160006101000a81548173ffffffffffffffffffffffffffffffffffffffff021916908373ffffffffffffffffffffffffffffffffffffffff16021790555050610b70806100c46000396000f300608060405260043610610083576000357c0100000000000000000000000000000000000000000000000000000000900463ffffffff168063219cb2a4146100885780633ccfd60b146100ed5780636c19e78314610104578063704b6c02146101475780638da5cb5b1461018a578063dbe920c7146101e1578063f413bdb314610275575b600080fd5b6100eb6004803603810190808035906020019092919080356000191690602001909291908035600019169060200190929190803560ff169060200190929190803560001916906020019092919080356000191690602001909291905050506102cc565b005b3480156100f957600080fd5b5061010261039b565b005b34801561011057600080fd5b50610145600480360381019080803573ffffffffffffffffffffffffffffffffffffffff1690602001909291905050506104e0565b005b34801561015357600080fd5b50610188600480360381019080803573ffffffffffffffffffffffffffffffffffffffff1690602001909291905050506105e8565b005b34801561019657600080fd5b5061019f6106ef565b604051808273ffffffffffffffffffffffffffffffffffffffff1673ffffffffffffffffffffffffffffffffffffffff16815260200191505060405180910390f35b3480156101ed57600080fd5b5061025b600480360381019080803590602001909291908035906020019092919080356000191690602001909291908035600019169060200190929190803560ff16906020019092919080356000191690602001909291908035600019169060200190929190505050610714565b604051808215151515815260200191505060405180910390f35b34801561028157600080fd5b5061028a610b1e565b604051808273ffffffffffffffffffffffffffffffffffffffff1673ffffffffffffffffffffffffffffffffffffffff16815260200191505060405180910390f35b6102db34878787878787610714565b151561034f576040517f08c379a000000000000000000000000000000000000000000000000000000000815260040180806020018281038252601a8152602001807f4f6e6c79206163636570742076616c6964207061796d656e747300000000000081525060200191505060405180910390fd5b83600019167f0d9a735727e5ed6b742e29ff2a208ddca66573388324485cee3cb141c6f40ddb4234604051808381526020018281526020019250505060405180910390a2505050505050565b6000809054906101000a900473ffffffffffffffffffffffffffffffffffffffff1673ffffffffffffffffffffffffffffffffffffffff163373ffffffffffffffffffffffffffffffffffffffff1614151561045f576040517f08c379a000000000000000000000000000000000000000000000000000000000815260040180806020018281038252601a8152602001807f4d7573742062652074686520636f6e7472616374206f776e657200000000000081525060200191505060405180910390fd5b6000809054906101000a900473ffffffffffffffffffffffffffffffffffffffff1673ffffffffffffffffffffffffffffffffffffffff166108fc3073ffffffffffffffffffffffffffffffffffffffff16319081150290604051600060405180830381858888f193505050501580156104dd573d6000803e3d6000fd5b50565b6000809054906101000a900473ffffffffffffffffffffffffffffffffffffffff1673ffffffffffffffffffffffffffffffffffffffff163373ffffffffffffffffffffffffffffffffffffffff161415156105a4576040517f08c379a000000000000000000000000000000000000000000000000000000000815260040180806020018281038252601a8152602001807f4d7573742062652074686520636f6e7472616374206f776e657200000000000081525060200191505060405180910390fd5b80600160006101000a81548173ffffffffffffffffffffffffffffffffffffffff021916908373ffffffffffffffffffffffffffffffffffffffff16021790555050565b6000809054906101000a900473ffffffffffffffffffffffffffffffffffffffff1673ffffffffffffffffffffffffffffffffffffffff163373ffffffffffffffffffffffffffffffffffffffff161415156106ac576040517f08c379a000000000000000000000000000000000000000000000000000000000815260040180806020018281038252601a8152602001807f4d7573742062652074686520636f6e7472616374206f776e657200000000000081525060200191505060405180910390fd5b806000806101000a81548173ffffffffffffffffffffffffffffffffffffffff021916908373ffffffffffffffffffffffffffffffffffffffff16021790555050565b6000809054906101000a900473ffffffffffffffffffffffffffffffffffffffff1681565b60006060600080894211151515610793576040517f08c379a000000000000000000000000000000000000000000000000000000000815260040180806020018281038252600f8152602001807f5061796d656e74206973206c617465000000000000000000000000000000000081525060200191505060405180910390fd5b6040805190810160405280601c81526020017f19457468657265756d205369676e6564204d6573736167653a0a33320000000081525092508a8a8a60405160200180848152602001838152602001826000191660001916815260200193505050506040516020818303038152906040526040518082805190602001908083835b6020831015156108385780518252602082019150602081019050602083039250610813565b6001836020036101000a0380198251168184511680821785525050505050509050019150506040518091039020915082826040516020018083805190602001908083835b6020831015156108a1578051825260208201915060208101905060208303925061087c565b6001836020036101000a0380198251168184511680821785525050505050509050018260001916600019168152602001925050506040516020818303038152906040526040518082805190602001908083835b60208310151561091957805182526020820191506020810190506020830392506108f4565b6001836020036101000a03801982511681845116808217855250505050505090500191505060405180910390209050876000191682600019161415156109c7576040517f08c379a000000000000000000000000000000000000000000000000000000000815260040180806020018281038252600d8152602001807f48617368206d69736d617463680000000000000000000000000000000000000081525060200191505060405180910390fd5b600160009054906101000a900473ffffffffffffffffffffffffffffffffffffffff1673ffffffffffffffffffffffffffffffffffffffff16600182898989604051600081526020016040526040518085600019166000191681526020018460ff1660ff1681526020018360001916600019168152602001826000191660001916815260200194505050505060206040516020810390808403906000865af1158015610a77573d6000803e3d6000fd5b5050506020604051035173ffffffffffffffffffffffffffffffffffffffff16141515610b0c576040517f08c379a000000000000000000000000000000000000000000000000000000000815260040180806020018281038252601c8152602001807f5369676e6174757265206d69736d6174636820666f722071756f74650000000081525060200191505060405180910390fd5b60019350505050979650505050505050565b600160009054906101000a900473ffffffffffffffffffffffffffffffffffffffff16815600a165627a7a72305820540dbe0c1ce966817ebef4ad16805859a8286e4967ba1c0ee9ffa887e343191a0029",
  "source": "pragma solidity ^0.4.23;\n\n\ncontract PaymentValidator {\n  address public owner;\n  address public quoteSigner;\n\n  event PaymentAccepted(bytes32 indexed hash, uint time, uint value);\n\n\n  constructor(address valueSigner) public {\n    owner = msg.sender;\n    quoteSigner = valueSigner;\n  }\n\n  function isValidPayment(uint value, uint expiration, bytes32 payload, bytes32 hash, uint8 v, bytes32 r, bytes32 s) public view returns(bool valid) {\n    require(now <= expiration, \"Payment is late\");\n    bytes memory prefix = \"\\x19Ethereum Signed Message:\\n32\";\n    bytes32 ourHash = keccak256(abi.encodePacked(value, expiration, payload));\n    bytes32 payloadHash = keccak256(abi.encodePacked(prefix, ourHash));\n    require(ourHash == hash, \"Hash mismatch\");\n    require(ecrecover(payloadHash, v, r, s) == quoteSigner, \"Signature mismatch for quote\");\n    return true;\n  }\n\n  function pay(uint expiration, bytes32 payload, bytes32 hash, uint8 v, bytes32 r, bytes32 s) public payable {\n    require(isValidPayment(msg.value, expiration, payload, hash, v, r, s), 'Only accept valid payments');\n    emit PaymentAccepted(hash, now, msg.value);\n  }\n\n  modifier isAdmin() {\n    require(msg.sender == owner, \"Must be the contract owner\");\n    _;\n  }\n  function withdraw() public isAdmin {\n    owner.transfer(address(this).balance);\n  }\n  function setSigner(address newQuoteSigner) public isAdmin {\n    quoteSigner = newQuoteSigner;\n  }\n  function setAdmin(address newAdmin) public isAdmin {\n    owner = newAdmin;\n  }\n}\n",
  "sourcePath": "/Users/micah/dev/decent-services/packages/smart-contracts-api/blockchain/contracts/PaymentValidator.sol",
  "compiler": {
    "name": "solc",
    "version": "0.4.24+commit.e67f0147.Emscripten.clang"
  },
  "schemaVersion": "2.0.1",
  "updatedAt": "2018-09-12T04:32:43.247Z"
}