{
  "contractName": "ApiMonetization",
  "abi": [
    {
      "constant": true,
      "inputs": [],
      "name": "validator",
      "outputs": [
        {
          "name": "",
          "type": "address"
        }
      ],
      "payable": false,
      "stateMutability": "view",
      "type": "function"
    },
    {
      "constant": true,
      "inputs": [
        {
          "name": "",
          "type": "address"
        }
      ],
      "name": "purchases",
      "outputs": [
        {
          "name": "",
          "type": "string"
        }
      ],
      "payable": false,
      "stateMutability": "view",
      "type": "function"
    },
    {
      "constant": true,
      "inputs": [],
      "name": "owner",
      "outputs": [
        {
          "name": "",
          "type": "address"
        }
      ],
      "payable": false,
      "stateMutability": "view",
      "type": "function"
    },
    {
      "inputs": [
        {
          "name": "paymentVerifier",
          "type": "address"
        }
      ],
      "payable": false,
      "stateMutability": "nonpayable",
      "type": "constructor"
    },
    {
      "anonymous": false,
      "inputs": [
        {
          "indexed": true,
          "name": "signingKey",
          "type": "address"
        },
        {
          "indexed": true,
          "name": "purchaser",
          "type": "address"
        },
        {
          "indexed": false,
          "name": "paid",
          "type": "uint256"
        }
      ],
      "name": "ApiPurchase",
      "type": "event"
    },
    {
      "constant": true,
      "inputs": [
        {
          "name": "numCalls",
          "type": "string"
        },
        {
          "name": "nonce",
          "type": "uint256"
        }
      ],
      "name": "validate",
      "outputs": [
        {
          "name": "hash",
          "type": "bytes32"
        }
      ],
      "payable": false,
      "stateMutability": "pure",
      "type": "function"
    },
    {
      "constant": false,
      "inputs": [
        {
          "name": "signingKey",
          "type": "address"
        },
        {
          "name": "numCalls",
          "type": "string"
        },
        {
          "name": "nonce",
          "type": "uint256"
        },
        {
          "name": "expiration",
          "type": "uint256"
        },
        {
          "name": "payload",
          "type": "bytes32"
        },
        {
          "name": "hash",
          "type": "bytes32"
        },
        {
          "name": "v",
          "type": "uint8"
        },
        {
          "name": "r",
          "type": "bytes32"
        },
        {
          "name": "s",
          "type": "bytes32"
        }
      ],
      "name": "purchaseApiCalls",
      "outputs": [],
      "payable": true,
      "stateMutability": "payable",
      "type": "function"
    }
  ],
  "bytecode": "0x608060405234801561001057600080fd5b506040516020806109ee83398101806040528101908080519060200190929190505050336000806101000a81548173ffffffffffffffffffffffffffffffffffffffff021916908373ffffffffffffffffffffffffffffffffffffffff16021790555080600160006101000a81548173ffffffffffffffffffffffffffffffffffffffff021916908373ffffffffffffffffffffffffffffffffffffffff1602179055505061092a806100c46000396000f30060806040526004361061006d576000357c0100000000000000000000000000000000000000000000000000000000900463ffffffff1680633a5381b5146100725780637ee0cda4146100c9578063842a77d3146101585780638da5cb5b14610214578063adc432061461026b575b600080fd5b34801561007e57600080fd5b50610087610340565b604051808273ffffffffffffffffffffffffffffffffffffffff1673ffffffffffffffffffffffffffffffffffffffff16815260200191505060405180910390f35b3480156100d557600080fd5b5061013a600480360381019080803590602001908201803590602001908080601f016020809104026020016040519081016040528093929190818152602001838380828437820191505050505050919291929080359060200190929190505050610366565b60405180826000191660001916815260200191505060405180910390f35b34801561016457600080fd5b50610199600480360381019080803573ffffffffffffffffffffffffffffffffffffffff169060200190929190505050610447565b6040518080602001828103825283818151815260200191508051906020019080838360005b838110156101d95780820151818401526020810190506101be565b50505050905090810190601f1680156102065780820380516001836020036101000a031916815260200191505b509250505060405180910390f35b34801561022057600080fd5b506102296104f7565b604051808273ffffffffffffffffffffffffffffffffffffffff1673ffffffffffffffffffffffffffffffffffffffff16815260200191505060405180910390f35b61033e600480360381019080803573ffffffffffffffffffffffffffffffffffffffff169060200190929190803590602001908201803590602001908080601f0160208091040260200160405190810160405280939291908181526020018383808284378201915050505050509192919290803590602001909291908035906020019092919080356000191690602001909291908035600019169060200190929190803560ff1690602001909291908035600019169060200190929190803560001916906020019092919050505061051c565b005b600160009054906101000a900473ffffffffffffffffffffffffffffffffffffffff1681565b600081836040516020018083815260200182805190602001908083835b6020831015156103a85780518252602082019150602081019050602083039250610383565b6001836020036101000a038019825116818451168082178552505050505050905001925050506040516020818303038152906040526040518082805190602001908083835b60208310151561041257805182526020820191506020810190506020830392506103ed565b6001836020036101000a0380198251168184511680821785525050505050509050019150506040518091039020905092915050565b60026020528060005260406000206000915090508054600181600116156101000203166002900480601f0160208091040260200160405190810160405280929190818152602001828054600181600116156101000203166002900480156104ef5780601f106104c4576101008083540402835291602001916104ef565b820191906000526020600020905b8154815290600101906020018083116104d257829003601f168201915b505050505081565b6000809054906101000a900473ffffffffffffffffffffffffffffffffffffffff1681565b600087896040516020018083815260200182805190602001908083835b60208310151561055e5780518252602082019150602081019050602083039250610539565b6001836020036101000a038019825116818451168082178552505050505050905001925050506040516020818303038152906040526040518082805190602001908083835b6020831015156105c857805182526020820191506020810190506020830392506105a3565b6001836020036101000a038019825116818451168082178552505050505050905001915050604051809103902090508560001916816000191614151561069c576040517f08c379a00000000000000000000000000000000000000000000000000000000081526004018080602001828103825260378152602001807f4d69736d61746368206265747765656e2068617368206f66206e756d6265722081526020017f6f662063616c6c7320616e64207573657220696e70757400000000000000000081525060400191505060405180910390fd5b600160009054906101000a900473ffffffffffffffffffffffffffffffffffffffff1673ffffffffffffffffffffffffffffffffffffffff1663219cb2a4348989898989896040518863ffffffff167c010000000000000000000000000000000000000000000000000000000002815260040180878152602001866000191660001916815260200185600019166000191681526020018460ff1660ff1681526020018360001916600019168152602001826000191660001916815260200196505050505050506000604051808303818588803b15801561077b57600080fd5b505af115801561078f573d6000803e3d6000fd5b50505050503373ffffffffffffffffffffffffffffffffffffffff168a73ffffffffffffffffffffffffffffffffffffffff167f31e5ef0fc48620c5a717696a9fc4fa4386e98d619c5960cd56d8c68dc5af5601346040518082815260200191505060405180910390a388600260008c73ffffffffffffffffffffffffffffffffffffffff1673ffffffffffffffffffffffffffffffffffffffff168152602001908152602001600020908051906020019061084c929190610859565b5050505050505050505050565b828054600181600116156101000203166002900490600052602060002090601f016020900481019282601f1061089a57805160ff19168380011785556108c8565b828001600101855582156108c8579182015b828111156108c75782518255916020019190600101906108ac565b5b5090506108d591906108d9565b5090565b6108fb91905b808211156108f75760008160009055506001016108df565b5090565b905600a165627a7a7230582095bcdfb4fcf1b39e638f42d4b19519e6c2ce47e5aeaa3b36148ddb5f77c985520029",
  "source": "pragma solidity ^0.4.23;\n\nimport \"./PaymentValidator.sol\";\n\ncontract ApiMonetization {\n\n  address public owner;\n  PaymentValidator public validator;\n  mapping(address => string) public purchases;\n  event ApiPurchase(address indexed signingKey, address indexed purchaser, uint paid);\n\n  constructor(address paymentVerifier) public {\n    owner = msg.sender;\n    validator = PaymentValidator(paymentVerifier);\n  }\n\n\n  function validate(string numCalls, uint nonce) public pure returns(bytes32 hash) {\n    return keccak256(abi.encodePacked(nonce, numCalls));\n  }\n\n  function purchaseApiCalls(\n    address signingKey,\n    string numCalls,\n    uint nonce,\n    uint expiration,\n    bytes32 payload,\n    bytes32 hash,\n    uint8 v,\n    bytes32 r,\n    bytes32 s\n  ) public payable\n  {\n    bytes32 ourHash = keccak256(abi.encodePacked(nonce, numCalls));\n    require(ourHash == payload, \"Mismatch between hash of number of calls and user input\");\n    validator.pay.value(msg.value)(expiration, payload, hash, v, r, s);\n    emit ApiPurchase(signingKey, msg.sender, msg.value);\n    purchases[signingKey] = numCalls;\n  }\n}\n",
  "sourcePath": "/Users/micah/dev/decent-services/packages/decent-smart-contracts/blockchain/contracts/ApiMonetization.sol",
  "compiler": {
    "name": "solc",
    "version": "0.4.24+commit.e67f0147.Emscripten.clang"
  },
  "schemaVersion": "2.0.1",
  "updatedAt": "2018-09-11T05:16:43.615Z"
}